:020000040800F2
:1000000040E10020C502000819410008591E0008FF
:10001000154100084B0B0008736900080000000040
:100020000000000000000000000000002D02000899
:10003000A11700080000000071020008D15F00084D
:10004000DF020008DF020008DF020008DF0200080C
:10005000DF020008DF020008DF020008DF020008FC
:10006000DF020008DF020008DF020008DF020008EC
:10007000DF020008DF020008DF020008DF020008DC
:10008000DF020008DF020008DF020008DF020008CC
:10009000DF020008DF020008DF020008A5170008E1
:1000A000DF020008DF020008DF020008DF020008AC
:1000B00041600008DF020008DF020008DF020008DC
:1000C000DF020008DF020008DF020008DF0200088C
:1000D000DF02000851670008DF020008DF020008A5
:1000E000DF020008DF020008DF020008DF0200086C
:1000F000DF020008DF020008DF020008DF0200085C
:10010000DF02000835440008DF020008DF020008B3
:10011000DF020008DF020008DF020008DF0200083B
:10012000DF020008DF020008DF020008DF0200082B
:1001300000F002F800F06BF80AA090E8000C82448E
:100140008344AAF10107DA4501D100F060F8AFF26B
:10015000090EBAE80F0013F0010F18BFFB1A43F0A5
:1001600001031847A02A0400C02A04000A444FF0E3
:10017000000C10F8013B13F0070408BF10F8014B06
:100180001D1108BF10F8015B641E05D010F8016B4B
:10019000641E01F8016BF9D113F0080F1EBF10F8AF
:1001A000014BAD1C0C1B09D16D1E58BF01F801CBD2
:1001B000FAD505E014F8016B01F8016B6D1EF9D555
:1001C0009142D6D37047000000230024002500266A
:1001D000103A28BF78C1FBD8520728BF30C148BFAA
:1001E0000B607047642900F02381752900F020819D
:1001F000782900F05981632900F05584732900F0B3
:100200005A84002070471FB51FBD10B510BD00F007
:1002100071FC1146FFF7F7FF0BF0A6FE00F08FFC14
:1002200003B4FFF7F2FF03BC06F02BFD224B196865
:100230000868B0E8F00F80F30988BFF36F8F4FF0C4
:10024000000080F311884EF00D0E70470000000092
:1002500006480068006880F3088862B661B6BFF39C
:100260004F8FBFF36F8F00DF00BF00BF08ED00E0CE
:10027000EFF30980BFF36F8F0F4B1A6820E9F00F7F
:10028000106008B54FF0500080F31188BFF34F8F16
:10029000BFF36F8F14F0CAFC4FF0000080F3118899
:1002A000BDE8084019680868B0E8F00F80F30988D5
:1002B000BFF36F8F704700BF54000020EFF305803D
:1002C000704700000948804709480047FEE7FEE7FD
:1002D000FEE7FEE7FEE7FEE7FEE7FEE7FEE7FEE7F6
:1002E00004480549054A064B70470000E15F0008D5
:1002F0003101000840DB002040E1002040DD00200B
:1003000040DD0020704710B54C1084EA530404D53A
:100310004042C1F1000138BF491E1B4204D5524280
:10032000C3F1000338BF5B1E00F0C5FA14F0804F24
:1003300004D04042C1F1000138BF491E14F0004F03
:1003400004D05242C3F1000338BF5B1E10BD000051
:100350000FB4044910B503AA029800F0B1FB10BC19
:100360005DF814FB340000200FB41CB5074B06AA3F
:100370007B4469460090059800F073FB00206946B5
:1003800000F082FB1CBC5DF814FB000015070000A8
:1003900070B5044685690068C10601D5302600E0C5
:1003A0002026C00707D070BDD4E901213046904710
:1003B000206A401C20626D1EF6D570BD70B50446E3
:1003C00085690078C00707D170BDD4E901212020DC
:1003D0009047206A401C20626D1EF6D570BD70B536
:1003E0000C460546012A05D02878800600D5EA6922
:1003F000002302E0012305E05B1C934202D2E05C93
:100400000028F9D1A869E618C01AA861286A18441A
:1004100028622846FFF7BCFF04E0D5E9012114F863
:10042000010B9047B442F8D32846FFF7C7FF70BDD1
:100430002DE9F0410646002410687529314616A5BD
:1004400010D0AFF30080002802DA404213A507E085
:1004500031688A0701D512A502E0490704D511A524
:10046000012401E0AFF3008000210A2206F12407F5
:1004700009E0B0FBF2FCB0FBF2F302FB1C003030F1
:1004800078541846491C0028F3D123462A463046A2
:10049000BDE8F04100F086BA000000002D00000029
:1004A0002B0000002000000070B504460D462146D8
:1004B0001068AFF300802188090502D50F4A7A44FD
:1004C00002E00E4A7A440E32002104F1240305E0D2
:1004D00000F00F060009965D5E54491C0028F7D114
:1004E00020780023000704D5702D02D009B1022323
:1004F00011322046BDE8704000F054BAE6200400F6
:100500002DE9F05F894604464FF0000ADFF874B128
:10051000FB44C0F820A02046E1688847002874D03A
:10052000252806D0D4E901219047206A401C20628A
:10053000F1E700265F462046E16888472028054607
:1005400007DB312D05D2781910F8200C08B10643CD
:10055000F1E7B00701D526F00406C4F81CA0002777
:10056000C4F818A02A2D09D0284606F083FB38B31A
:1005700004EB8708303DC8F8185019E059F8041BFF
:10058000204604EB87029161E1688847012F054608
:1005900018D1E069002820DA26F020061DE0D8F8FE
:1005A000180000EB800005EB40003038C8F8180058
:1005B0002046E1688847054606F05CFB0028EED13E
:1005C000012F0AD02E2D08D12046E16888477F1CD4
:1005D0000546022F46F02006C4DBA069002803DA96
:1005E000404246F00106A061F00701D026F0100657
:1005F0006C2D0BD0682D09D04C2D39D06A2D35D0FB
:10060000742D35D07A2D33D016E038E0E1682F46CE
:1006100020468847B842054609D16C2F26D04FF4B2
:100620008060E168064320468847054604E06C2F59
:100630001AD04FF4807006430DB3A5F1410019287C
:1006400002D8203546F400664A46294620462660F0
:100650004E46FFF7C7FD80B101280BD0F61D26F0EE
:10066000070000F1080956E74020E4E78020D8E7BA
:100670000020D6E706F104094DE7284652E7206A34
:10068000BDE8F09FBC20040040EA010310B59B07C1
:100690000FD1042A0DD310C808C9121F9C42F8D0EC
:1006A00020BA19BA884201D9012010BD4FF0FF309D
:1006B00010BD1AB1D30703D0521C07E0002010BDB3
:1006C00010F8013B11F8014B1B1B07D110F8013B3F
:1006D00011F8014B1B1B01D1921EF1D1184610BD20
:1006E00010B5431C02E010F8011B71B18107FAD16B
:1006F0004FF0013202C88C1A8C4314EAC211F9D0AF
:10070000C01A0A0603D0C01E10BDC01A10BD0A04CC
:1007100001D0801E10BD0902FCD0401E10BD032A6E
:1007200040F2308010F0030C00F0158011F8013B0E
:10073000BCF1020F624498BF11F801CB00F8013BF5
:1007400038BF11F8013BA2F1040298BF00F801CBB9
:1007500038BF00F8013B11F0030300F02580083A90
:10076000C0F0088051F8043B083A51F804CBA0E8E7
:100770000810F5E7121D5CBF51F8043B40F8043B3C
:10078000AFF30080D20724BF11F8013B11F801CB71
:1007900048BF11F8012B24BF00F8013B00F801CB42
:1007A00048BF00F8012B704710B5203AC0F00B800D
:1007B000B1E81850203AA0E81850B1E81850A0E865
:1007C0001850BFF4F5AF5FEA027C24BFB1E81850BF
:1007D000A0E8185044BF18C918C0BDE810405FEA2F
:1007E000827C24BF51F8043B40F8043B08BF7047AB
:1007F000D20728BF31F8023B48BF11F8012B28BFB0
:1008000020F8023B48BF00F8012B704702F0FF03BD
:1008100043EA032242EA024200F002B84FF000022B
:100820000429C0F0128010F0030C00F01B80CCF102
:10083000040CBCF1020F18BF00F8012BA8BF20F870
:10084000022BA1EB0C0100F00DB85FEAC17C24BFC4
:1008500000F8012B00F8012B48BF00F8012B70476E
:100860004FF0000200B5134694469646203922BF49
:10087000A0E80C50A0E80C50B1F12001BFF4F7AF94
:10088000090728BFA0E80C5048BF0CC05DF804EB76
:10089000890028BF40F8042B08BF704748BF20F8E4
:1008A000022B11F0804F18BF00F8012B70477047E2
:1008B00070477047704753EA020C00F069802DE9D9
:1008C000F04B4FF00006002B1FBFB3FA83F503FA7D
:1008D00005F424FA05F65E4012BF1643B2FA82F51B
:1008E00002FA05F4C5F120051EBF22FA05FC44EA10
:1008F0000C04203556EA044C4FEA144418BF641C1B
:100900004FF000084FF00009904271EB030C39D30F
:10091000002919BFB1FA81F701FA07F6B0FA80F79A
:1009200000FA07F6C7F120071EBF20FA07FC46EAC7
:100930000C062037B6FBF4FCA7EB0507103F07F0C9
:100940001F0BCBF120060CFA0BFB2CFA06F644BF6A
:10095000B3460026202FA4BF5E464FF0000B5BEA93
:10096000060C08BF4FF0010B19EB0B09ABFB027C27
:1009700048EB0608C01B06FB02CC0BFB03CC71EB5B
:100980000C01C1E70B46024641464846BDE8F08BE4
:1009900013B54FF000004FF00001AFF30080BDE849
:1009A0001C4070472DE9F0470D4699469246044693
:1009B00000F124080168880604D5E06921F01001DF
:1009C000216000E00120A84201DD471B00E0002774
:1009D000A1697A1902EB0900081AA0612078C00603
:1009E00002D42046FFF7D4FC002608E0D4E9012118
:1009F0001AF806009047206A401C761C20624E457B
:100A0000F4DB2078C0060AD52046FFF7C1FC06E0DB
:100A1000D4E9012130209047206A401C2062381E12
:100A2000A7F10107F4DC07E0D4E9012118F805007B
:100A30009047206A401C2062281EA5F10105F3DCC6
:100A40002046FFF7BBFC2078000602D50220BDE857
:100A5000F0870120FBE7000001694A1C0261087869
:100A6000704700B58FB0CDE90131002105910549EE
:100A70007944CDE9031011466846FFF741FD0FB0F8
:100A800000BD0000E5FFFFFF0A6802F8010B0A60E5
:100A9000704710B5436913B1AFF3008001E0FFF771
:100AA0009EFC012010BD127800F124010A70002282
:100AB0004A700122EDE711684FF0FF32E9E70000CC
:100AC000074B70B50D467B44FFF7CBFF0446284625
:100AD00000F00CF810B14FF0FF3070BD204670BD33
:100AE000579E000000487047E0DA0020007B00F0CD
:100AF000800070477546FFF7F5FFAE460500694672
:100B0000534620F00700854618B020B5FFF7E8FBF4
:100B1000BDE820404FF000064FF000074FF00008FE
:100B20004FF0000B21F00701AC46ACE8C009ACE87F
:100B3000C009ACE8C009ACE8C0098D46704704465E
:100B4000AFF300802046FFF76BFB00BFFEE770B5F8
:100B500000254FF4803404E0802003F057FC00B1FE
:100B600003E02000A4F10104F6D100BF0CB903207A
:100B700070BD40F2FF5003F003FC2846F8E7000088
:100B800070B5044605E01548456B05F0450000B119
:100B900000E0F8E700BF042003F038FC20B1042097
:100BA00003F0EEFB032070BD012003F02FFC20B109
:100BB000012003F0E5FB0120F5E708480069A042A9
:100BC00001D01020EFE740F2FF5004498863084647
:100BD000406908210840C0B2E5E7000000800140FC
:100BE00070B500264FF4803505E01148446B04F0E1
:100BF000450000B103E02800A5F10105F5D100BFD3
:100C000015B104F0040028B10326042003F0B8FB5A
:100C1000304670BD012003F0F9FB18B10126012018
:100C200003F0AEFB40F2FF5003F0AAFB3046F0E7C2
:100C30000080014010B505E00B48446B04F045000E
:100C400000B100E0F8E700BF042003F0DFFB20B1B3
:100C5000042003F095FB032010BD40F2FF5003F089
:100C60008FFB0020F8E70000008001402DE9F041F3
:100C700005460E464FF0000805E01F48476B07F099
:100C8000450000B100E0F8E700BF042003F0BEFB20
:100C900028B1042003F074FB0320BDE8F08101209B
:100CA00003F0B4FB20B1012003F06AFB0120F4E75C
:100CB00011480069A84201D01020EEE740F2FF5031
:100CC00003F05EFB0C48446904F4604018B9200C42
:100CD00030804046E1E704F4005008B11320DCE71F
:100CE00004F4804008B11020D7E704F4004008B1B4
:100CF0000F20D2E74046D0E70080014070B50026C3
:100D00004FF4803505E00F48446B04F0450000B116
:100D100003E02800A5F10105F5D100BF15B104F0ED
:100D2000040028B10326042003F02AFB304670BDDE
:100D300004F0400018B10026402003F021FB3046AB
:100D4000F5E700000080014000B5282000F000FA1F
:100D50000246292000F0FCF942EA00222A2000F095
:100D6000F7F942EA00422B2000F0F2F942EA006271
:100D7000104600BD70B500241A480078082811D12B
:100D800008E0642006F082FA601CC4B2642C01DD25
:100D9000FF2070BD012000F0A1F900F02000002824
:100DA000EFD010E008E0642006F070FA601CC4B2D6
:100DB000642C01DDFF20ECE7012000F0C9F900F010
:100DC00040000028EFD0012000F0C2F9022101EA22
:100DD000A015002000F0BCF9C0F3C0000543284670
:100DE000D7E70000120A002010B59AB001214FF495
:100DF000F07003F0F5F90121080203F0D1F90121A7
:100E0000084603F0EDF98020ADF8640003208DF86A
:100E1000660010208DF8670019A98E4800F086FF43
:100E20004020ADF8640048208DF8670019A98A4871
:100E300000F07CFF4CF23370ADF8640003208DF8B5
:100E4000660018208DF8670019A9824800F06EFF2F
:100E50004FF68070ADF8640003208DF8660018200E
:100E60008DF8670019A97D4800F060FF4FF400502D
:100E7000ADF8640003208DF8660018208DF8670037
:100E800019A9774800F052FF4FF40070ADF86400E4
:100E900003208DF8660018208DF8670019A96E48A8
:100EA00000F044FF0621084600F020FF4020179084
:100EB00000208DF860000C208DF8610001208DF875
:100EC000620017A800F082FC402000F079FC172097
:100ED0008DF8580008208DF8590000208DF85A0030
:100EE00001208DF85B0016A803F018F9002000908F
:100EF000019003200290002003900490059006903A
:100F00000220079000200890099010200A900020ED
:100F10000B900C900D900E900F904FF4805010900D
:100F20000020119012901390CDF850D0CDF854D0ED
:100F300007A800F039FD0121022000F01BFD4948FF
:100F400004680820484908700020488081204870C3
:100F5000022008710021444841718171210CC17146
:100F6000210A01724472FF203F498872FF213E48E6
:100F7000C172017341738173C1730174417400F0D4
:100F8000F7F9642006F082F9FFF7DEFE04462146F9
:100F900036A0FFF7DDF93948844202D001201AB0AB
:100FA00010BD3149087800F0A5FA0021084600F08C
:100FB000CFFA0021022000F0CBFA3F21082000F0F8
:100FC000C7FA3821092000F0C3FA00210A2000F0F6
:100FD000BFFA00212F2000F0BBFA2C21012000F0E5
:100FE000B7FA0F21FE2000F0B3FA80212D2000F087
:100FF000AFFA1D48001D00F061FA1B480A3000F0EE
:101000006BFA3121052000F0A3FA8021FF2000F0C7
:101010009FFAFFF7AFFE0446FF2C11D004F0010049
:1010200008B117A000E018A0024604F0020008B1C1
:101030000A2000E06420014615A0FFF789F902E0CC
:101040001EA0FFF785F908484178FF2000F080FADC
:101050000020A4E7001401400020014000180140D6
:10106000001C0140E8F7FF1F120A0020444D3930F0
:1010700030302049443A2523780D0A00460A009072
:1010800046756C6C0000000048616C660000000052
:10109000444D393030302053706565643A25644DD5
:1010A0006270732C4475706C65783A257320647592
:1010B000706C6578206D6F64650D0A00444D3930A1
:1010C00030302045737461626C697368204C696EBE
:1010D0006B204661696C6564210D0A0070B5044699
:1010E00044F040010C2000F033FA0C210B2000F0FA
:1010F0002FFA0A2006F0CAF800210B2000F028FA87
:101100000D2000F025F802460E2000F021F842EAFA
:10111000002085B2284670BD70B505460C4645F0E6
:1011200040010C2000F014FAE1B20D2000F010FA9A
:10113000210A0E2000F00CFA0A210B2000F008FA18
:10114000322006F0A3F800210B2000F001FA70BD58
:101150000146034801804FF0C840B0F800017047D5
:10116000FE0000642DE9FE43002400215848006879
:1011700014F06CFA00F0FF0900BFF020FFF7E8FF61
:1011800054480088C7B2002F7ED0012F0DD952A03D
:10119000FFF7DEF80021052000F0DAF98021FE20BB
:1011A00000F0D6F92046BDE8FE83F2204949891EA9
:1011B00008804FF0C840B0F800010290881C0088F9
:1011C00001900322BDF8041010460CF001FA044609
:1011D000A4B125460FE0D5F804806E8908E04FF0F1
:1011E000C840B0F80001A8F8000008F10208B61ED7
:1011F000002EF4DC2D68002DEDD111E0BDF80410B7
:101200003EA0FFF7A5F8E846BDF8046006E04FF001
:10121000C840B0F80001A8F80000B61E002EF6D1B4
:10122000BDF8080000F43F4040B9BDF80400402874
:1012300004DBBDF80400B0F5C06F3FDDBDF8081059
:1012400034A0FFF785F8BDF8080000F4807010B1F5
:1012500034A0FFF77DF8BDF8080000F4007010B16D
:1012600034A0FFF775F8BDF8080000F4004010B195
:1012700034A0FFF76DF8BDF80400B0F5C06F0BDDCA
:1012800035A0FFF765F800E00CE00121002000F038
:101290005FF9052005F0FAFF14B120460CF079FB48
:1012A00000246AE70221FE2000F052F981202F4934
:1012B000487008464178FF2000F04AF900231A469A
:1012C00019460348006813F021FF20466BE7000031
:1012D0000802002000010064646D39303030207253
:1012E000783A207278206572726F722C2073746F56
:1012F00070206465766963650D0A0000706275662A
:10130000C4DAB4E6C9EAC7EBCAA7B0DC3A25640D73
:101310000A00000072785F7374617475733A252354
:10132000780D0A007278206669666F206572726FA8
:10133000720D0A00727820637263206572726F7298
:101340000D0A00007278206C656E67746820657203
:10135000726F720D0A0000007278206C656E6774FF
:101360006820746F6F206269670D0A00120A0020FE
:1013700010B500201B4908600A2005F087FF0120F6
:101380001949C1F89C01642005F080FF01211E204D
:1013900000F0DEF800211F2000F0DAF80321002021
:1013A00000F0D6F800BF192005F070FF0020FFF70D
:1013B000CFFE00F001000028F5D10021084600F022
:1013C000C7F80321002000F0C3F800BF192005F082
:1013D0005DFF0020FFF7BCFE00F001000028F5D102
:1013E00010BD00009C812242008022422DE9F8437A
:1013F00004460027002600212D48006814F026F935
:1014000000F0FF088021FF2000F0A2F8F820294911
:10141000088025461BE06889B84216DD3846791CED
:101420008FB26A68125C3046711CCEB20DF8002093
:10143000022E0CD19DF800009DF8011040EA012019
:101440001C49891C0880002601E02D680027002D1A
:10145000E1D1012E04D19DF800001649891C0880B5
:10146000217AFC2000F074F82089010AFD2000F0A8
:101470006FF80121022000F06BF800BFFE20FFF79B
:1014800067FE00F002000028F8D00221FE2000F0E4
:101490005FF809484178FF2000F05AF800231A4607
:1014A00019460348006813F031FEBDE8F8830000D8
:1014B00008020020FE000064120A002010B5044655
:1014C000002306E0E15C03F1100000F041F8581C35
:1014D000C3B2062BF6DB10BD10B50446002306E0B0
:1014E000E15C03F1160000F033F8581CC3B2082B7E
:1014F000F6DB10BD70B50646092E1BD2DFE806F0FC
:10150000050C1A1A08101A1A15000024212511E0DA
:101510004FF4807441250DE04FF40054812509E01B
:101520004FF4045440F2011504E04FF4805440F2AB
:10153000E11500BF00BF21460020FFF7EDFD294661
:101540000420FFF7E9FD00211F2000F001F870BD25
:10155000034A10804FF0C842A2F800117047000003
:10156000FE00006438B50020009017480588FE2072
:10157000FFF7EEFD04462146FE20FFF7E9FF04F0E9
:10158000040010B111A0FEF7E3FE04F0080010B152
:1015900011A0FEF7DDFE04F0010020B169461648F7
:1015A000006813F01DFF084805800098012809D144
:1015B000009838B14FF0805010490860BFF34F8F4A
:1015C000BFF36F8F38BD0000FE0000646F76657258
:1015D000666C6F77200D0A006F766572666C6F77A8
:1015E00020636F756E746572206F766572666C6FBE
:1015F00077200D0A000000000402002004ED00E046
:1016000021B1026842F00102026004E002684FF674
:10161000FE731A400260704701684FF6FE72114077
:1016200001600021016041608160C1604B498842D6
:1016300008D14A490839496841F00F01474A083A38
:1016400051608AE045491431884208D1434908393C
:10165000496841F0F001414A083A51607DE03F4954
:101660002831884208D13D490839496841F4706100
:101670003A4A083A516070E038493C31884208D112
:1016800036490839496841F47041344A083A516092
:1016900063E032495031884208D1304908394968FD
:1016A00041F470212D4A083A516056E02B496431CB
:1016B000884208D129490839496841F47001274A0C
:1016C000083A516049E025497831884208D12349D8
:1016D0000839496841F07061204A083A51603CE09D
:1016E0001F49884206D1011F096841F00F01021FFE
:1016F000116032E01A491431884208D11849091F93
:10170000096841F0F001164A121F116025E01449E2
:101710002831884208D11249091F096841F47061D3
:101720000F4A121F116018E00D493C31884208D160
:101730000B49091F096841F47041094A121F1160E1
:101740000BE007495031884207D10549091F096854
:1017500041F47021024A121F1160704708000240D4
:101760000804024010B50022026847F6F0739A435D
:101770000C6A8B6823430C6923434C6923438C69AF
:101780002343CC6923434C6A23438C6A23431A4383
:101790000260CB6843600B6883604B68C36010BD18
:1017A0007047000010B5402000F00AF801E0FFF794
:1017B000D9FE024800680028F9D010BD1801244263
:1017C00001490860704700001404014000212349CA
:1017D0008279002A3AD00A46126803689A430B4677
:1017E0001A600A1D126803689A430B1D1A60027979
:1017F00011440A6803681A430A60184A08321268DA
:1018000003689A43154B08331A601A1D126803685F
:101810009A43124B0C331A604279102A0ED11A1FC8
:10182000126803681A430D4B08331A601A1D1268B8
:1018300003681A43094B0C331A600DE007494279DB
:1018400011440A6803681A430A6005E002791144EA
:101850000A6803689A430A60704700000004014068
:1018600030B5044604254FF4302000F06FF80546EB
:10187000042D17D10C48006940F002000A490861A4
:1018800008464461006940F0400008614FF4302090
:1018900000F05CF805460448006941F6FD71084017
:1018A00001490861284630BD0020024004200B4950
:1018B000C96801F0010109B101200EE00749C968BA
:1018C00001F0040109B1022007E00449C96801F0F0
:1018D000100109B1032000E00420704700200240FD
:1018E0000348006940F0800001490861704700002A
:1018F0000020024070B504460D460426F00200F0B8
:1019000025F80646042E11D10948006940F001006F
:10191000074908612580F00200F018F806460448DF
:10192000006941F6FE71084001490861304670BD0A
:10193000002002400248034948600348486070475D
:101940002301674500200240AB89EFCD00B5024678
:101950000423FFF7ABFF034603E0FFF7A7FF0346AF
:10196000521E012B01D1002AF7D102B905231846D6
:1019700000BD000051B18200A2F1C042126842F0E5
:1019800001038200A2F1C042136009E08200A2F1CB
:10199000C0421268034B1A408300A3F1C0431A608F
:1019A00070470000FEFF0F00D0E901121143C2682A
:1019B0001143026911434269114382691143C269AB
:1019C0001143026A1143426A1143826A1143C26A97
:1019D0001143026B114302689200A2F1C0421160F0
:1019E000816808290BD101688900A1F1C04109680B
:1019F00041F0400201688900A1F1C0410A60416BD9
:101A00000968426B526841EA0211426B926841EAEE
:101A10000221426B928941EA0241426B128A41EAF9
:101A20000251426B127D41EA0261426B926911439D
:101A30000268521C9200A2F1C0421160C16AB1F565
:101A4000804F1BD1816B0968826B526841EA021199
:101A5000826B926841EA0221826B128A41EA02514A
:101A6000826B127D41EA0261826B926911430268C6
:101A70009200A2F1C042C2F8041107E06FF0704278
:101A800001688900A1F1C041C1F80421704700003C
:101A900000B597B001214FF4F07002F0A1FB0121D5
:101AA000080202F07DFB4FF63370ADF800001820FD
:101AB0008DF8030003208DF802006946224800F0EB
:101AC00035F94FF68370ADF8000069461F4800F005
:101AD0002DF94FF23F00ADF8000069461C4800F0B8
:101AE00025F940F23F40ADF800006946194800F082
:101AF0001DF9002001900290032003900020049023
:101B000005900690079004200890002009900A9004
:101B100010200B9000200C900E900D900F901090C4
:101B20004FF480501190002012901390149001A84F
:101B30001590169008A8FFF737FF01210420FFF742
:101B400019FF17B000BD000000140140001801404B
:101B5000001C0140002001402DE9FC4107460D46D4
:101B60000026002400200090019008205B490860B6
:101B700010204860402088600020C8604FF48060DA
:101B80000861084602F078FC1020FEF7F9FF0446D1
:101B900014B12046BDE8FC815148008800044F493B
:101BA000086037204860402088600020C8604FF4FB
:101BB00080600861084602F05FFC3720FEF7E0FF16
:101BC00004460CB12046E5E74FF0FF304549086078
:101BD00008204860302088600220C860002008612A
:101BE00001204861084602F0E7FB00203B490860FD
:101BF00033204860402088600020C8604FF4806037
:101C00000861084602F038FC3320FEF7B9FF0446AD
:101C10000CB12046BEE70CE04FF4001002F0F6FBDA
:101C200038B102F023FC4DF82600761C022E00D3BA
:101C300006E02D48406B40F22A6108400028EBD0B6
:101C400000BF082002F0E2FB20B1082002F098FB60
:101C500004209FE7022002F0D9FB20B1022002F00D
:101C60008FFB022096E7202002F0D0FB20B120203D
:101C700002F086FB06208DE74FF4007002F0C6FBF1
:101C800028B14FF4007002F07BFB072082E740F29E
:101C9000FF5002F075FB00980006009901F47F41A7
:101CA00040EA0120009901F47F0140EA11200099E7
:101CB00040EA1160686001980006019901F47F41D3
:101CC00040EA0120019901F47F0140EA11200199C5
:101CD00040EA1160286020465CE7000040120020C6
:101CE00044000020541200200080014030B5002242
:101CF0008B071C0F0F2303FA04F20B4B8C1053F8C5
:101D000024309343084C8D1044F8253023468C1022
:101D100053F824308C07240F00FA04F42343024CB8
:101D20008D1044F8253030BD080001402DE9F04108
:101D3000024600250026002000230024002791F8F9
:101D400003C00CF00F0591F803C00CF0100CBCF1AF
:101D5000000F03D091F802C04CEA050591F800C0CD
:101D6000BCF1000F31D0146800202BE04FF0010CC3
:101D70000CFA00F3B1F800C00CEA03069E4220D131
:101D800083004FF00F0C0CFA03F7BC4305FA03FC79
:101D90004CEA040491F803C0BCF1280F06D14FF0BF
:101DA000010C0CFA00FCC2F814C00AE091F803C060
:101DB000BCF1480F05D14FF0010C0CFA00FCC2F841
:101DC00010C0401C0828D1D31460B1F800C0BCF189
:101DD000FF0F34DD546800202EE000F1080C4FF0B6
:101DE000010808FA0CF3B1F800C00CEA03069E42A1
:101DF00021D183004FF00F0C0CFA03F7BC4305FA16
:101E000003FC4CEA040491F803C0BCF1280F05D18F
:101E100000F1080C08FA0CF8C2F8148091F803C01D
:101E2000BCF1480F07D100F1080C4FF0010808FA87
:101E30000CF8C2F81080401C0828CED35460BDE8CE
:101E4000F0810246002093680B400BB1012000E0B6
:101E5000002070470161704700BFFEE772B670470F
:101E600062B670471CB504460020019000902148DE
:101E700000880004204908600D20486040208860E8
:101E80000020C8604FF480600861084602F0F4FA50
:101E90001A48406B009002E01848406B0090009890
:101EA00000F045000028F7D0012002F0AFFA20B181
:101EB000012002F065FA01201CBD042002F0A6FA00
:101EC00020B1042002F05CFA0320F5E70B4800691A
:101ED0000D2801D01020EFE740F2FF5002F050FA39
:101EE0000648406901900198C0F34320207000200B
:101EF000E2E7000044000020401200200080014082
:101F000008B50121442002F06BF91C20ADF8000057
:101F100048208DF8030069460648FFF707FF0120B7
:101F2000ADF8000028208DF8030069460248FFF74D
:101F3000FDFE08BD001801400008014010B5044630
:101F400014B101202C4908702B480078002837D0A4
:101F500010212A48FFF775FF78B108212748FFF7BD
:101F600070FF50B104212548FFF76BFF28B1012114
:101F70002348FFF766FF012822D10A2005F086F9E1
:101F800000201D49087010211C48FFF75AFF08B9AE
:101F9000012010BD08211948FFF753FF08B902209E
:101FA000F7E704211548FFF74CFF08B90320F0E7D5
:101FB00001211348FFF745FF01281BD10420E8E762
:101FC00010210E48FFF73DFF012813D108210B48CF
:101FD000FFF737FF01280DD104210848FFF731FF33
:101FE000012807D101210648FFF72BFF10B9012076
:101FF000014908700020CCE73E0000200018014095
:102000000008014030B5014601F01F04C1F345133B
:10201000CA0AE50205EB43151544A8B230BD00001D
:1020200070B50446002609480588408845430021CC
:10203000084601F083FD02F035F800BF02E00448D5
:102040000480761CAE42FAD370BD0000040A002062
:102050000008006C10B50446F4B900201F498871CF
:10206000F02008804FF4A07048800846808845F230
:10207000105188422ED14FF43050184908814FF446
:10208000285048814FF42C5088814FF4F07008801C
:102090004FF4487048801DE00120104988714FF4CA
:1020A000A0700880F02048800846808845F21051D2
:1020B00088420FD14FF43050084908814FF428501E
:1020C00048814FF42C5088814FF4487008804FF4B9
:1020D000F0704880002001F0C3FB10BD040A00200E
:1020E0002DE9FF4F84B081468A460020039002907C
:1020F0000698A0EB09050798A0EB0A06CDF8049016
:10210000CDF800A0002D01DD012705E00DB9002765
:1021100002E04FF0FF376D42002E02DD4FF0010864
:1021200006E016B94FF0000802E04FF0FF387642A3
:10213000B54201DD2C4600E034464FF0000B21E0B3
:10214000009A91B2019A90B200F022F803982844C4
:1021500003900298304402900398A04205DD039852
:10216000001B03900198384401900298A04205DDBD
:102170000298001B02900098404400900BF101006F
:102180001FFA80FB601C8345DADD08B0BDE8F08FE4
:1021900030B504460D462946204601F0CFFC01F03B
:1021A00081FF024800880249088030BD3A000020C3
:1021B0000008006CF0B504460D4616461F462B4637
:1021C000324629462046FFF78BFF3B4622462946EA
:1021D0002046FFF785FF3B46324639462046FFF74B
:1021E0007FFF3B46324629463046FFF779FFF0BD78
:1021F0002DE9F04306460F4690460024454603204D
:10220000A0EB48093CE07A1B91B2321990B2FFF77B
:10221000BFFF3A1B91B2721990B2FFF7B9FF3A199A
:1022200091B2721990B2FFF7B3FF7A1991B23219D5
:1022300090B2FFF7ADFF7A1991B2321B90B2FFF75F
:10224000A7FF3A1991B2721B90B2FFF7A1FF7A1B58
:1022500091B2321B90B2FFF79BFF3A1B91B2721BF7
:1022600090B2FFF795FF641CB9F1000F03DAA000EC
:10227000801D814404E0601B80000A3081446D1E93
:10228000AC42C0DDBDE8F08330B503460C461546D0
:102290005A48808849F24131884205D057488088A1
:1022A00045F21031884214D15449488901F0F4FEB6
:1022B000181201F0EBFED8B201F0E8FE4F49888910
:1022C00001F0EAFE201201F0E1FEE0B201F0DEFED4
:1022D0008CE04A48808845F21051884220D1474915
:1022E000488901F0D9FE181201F0D0FE434949890E
:1022F000491C88B201F0D0FED8B201F0C7FE3F49B8
:10230000888901F0C9FE201201F0C0FE3B4989898D
:10231000491C88B201F0C0FEE0B201F0B7FE65E0F2
:102320003648808841F66311884228D13348807945
:1023300020B932480088401EC01A83B22F4948890C
:1023400001F0AAFE181201F0A1FED8B201F09EFE23
:10235000181201F09BFED8B201F098FE2749888937
:1023600001F09AFE201201F091FEE0B201F08EFE23
:10237000201201F08BFEE0B201F088FE36E01F482B
:10238000808846F6040188421DD11C4880790128C6
:1023900004D11A480088401EC01A83B217494889E0
:1023A00001F07AFE181201F071FED8B201F06EFE53
:1023B0001249888901F070FE201201F067FEE0B238
:1023C00001F064FE12E00D488079012804D10B4829
:1023D0000088401EC01A83B208494889194601F096
:1023E0006BFE06498889214601F066FE0348008994
:1023F00003490880881C058030BD0000040A0020C5
:10240000FE07006C2DE9FC4F05460E461746984620
:10241000DDF82C90002001902748808846F60401C2
:10242000884229D124488079012825D1AB463546F8
:1024300021480088C01B401E86B247461E480088BF
:10244000A0EB0B00401E1FFA80F800201A4988718B
:102450002A2048812B20888143463A463146284627
:10246000CDF80090FFF7CEFF0120134988712B2093
:1024700048812A2088811CE0781B401C80B2019092
:10248000344614E02146284601F058FB01F00AFECC
:102490004FF0000A06E00948A0F800900AF1010098
:1024A0001FFA80FA01988245F5DB601C84B244452E
:1024B000E8DDBDE8FC8F0000040A00200008006C85
:1024C00000B59FB00121080201F06AFE01214FF41E
:1024D000B47001F085FE0120ADF8780010208DF871
:1024E0007B0003208DF87A001EA9FE48FFF71EFC32
:1024F0004CF23370ADF8780018208DF87B00032083
:102500008DF87A001EA9F848FFF710FC4FF680708E
:10251000ADF8780018208DF87B0003208DF87A0044
:102520001EA9F248FFF702FC41F20100ADF8780065
:1025300018208DF87B0003208DF87A001EA9EC4846
:10254000FFF7F4FB01200890002009900F200A906B
:1025500000200B900C900D900E90019002900320A3
:1025600003900020049005900690079006200F909D
:1025700000201090119010201290002013901590C0
:102580001490169017904FF48050189000201990D6
:102590004FF480401A9000201B9008A81C9001A8BE
:1025A0001D900FA8FFF700FA01210620FFF7E2F9BE
:1025B000322004F06BFE002001F046F9CD498880FE
:1025C00008468088FF280ADB084680884FF6FF719E
:1025D000884204D0C7488088B0F5134F7ED1D320FD
:1025E00001F05AFD01F070F8C249888001F06CF8E2
:1025F000C049888001F068F8BE4988800846808814
:102600004FF6FF7101EA0020BA49888001F05CF8BA
:10261000B84989880843B74988800846808849F2C4
:10262000413188425AD0BF2001F036FD01F04CF80C
:10263000B049888001F048F8AE49888001F044F83C
:10264000AC49888001F040F8AA4988800846808813
:102650004FF6FF7101EA0020A649888001F034F8A6
:10266000A44989880843A34988800846808846F69B
:10267000040188427AD0D42001F00EFD01F024F844
:102680009C49888001F020F89A49888001F01CF864
:1026900098498880084680884FF6FF7101EA00203B
:1026A0009449888001F010F892498988084391493B
:1026B00088800846808845F21031884256D04FF411
:1026C0005A4001F0E9FC00F0FFFF8A4988804FF48E
:1026D0005B4001F0E1FC00F0F7FF00E046E08549D7
:1026E0008880084680884FF6FF7101EA0020814902
:1026F00088804FF45C4001F0CFFC00F0E5FF7D499D
:10270000898808437B49888008468088B0F5004F57
:1027100002D145F2105088807648808845F21051E9
:10272000884223D0A12001F0B7FC00F0CDFF714911
:10273000888000F0C9FF6F498880084680884FF67E
:10274000FF7101EA00206B49888000F0BDFF6949F4
:1027500089880843674988800846808845F2617106
:10276000884203D141F663106249888061488088BD
:1027700045F2105188427DD155214FF4704001F04F
:102780009BFCAA214FF2010001F096FC52214FF26E
:10279000020001F091FC08214FF2030001F08CFCD3
:1027A00001214FF2040001F087FC0D214FF430406D
:1027B00001F082FC0D214BF2010001F07DFC0D21A6
:1027C0004BF2020001F078FC34214FF4364001F066
:1027D00073FC34214BF2016001F06EFC34214BF2AA
:1027E000026001F069FC0D214FF4314001F064FCFE
:1027F0000D214BF2011001F05FFC0D214BF2021094
:1028000001F05AFC34214FF4374001F055FC3421DB
:102810004BF2017001F050FC34214BF2027001F0D8
:102820004BFC00214FF4324001F046FC00214BF2FA
:10283000012001F041FC00214BF2022001F03CFCA0
:1028400024214FF4384001F037FC24214BF60100DD
:1028500001F032FC24214BF6020001F02DFC012195
:102860004FF43F4001F028FC0F214FF4334001F0BA
:1028700023FC00E0FEE30F214BF2013001F01CFCD1
:102880000F214BF2023001F017FC34214FF4394094
:1028900001F012FC34214BF6011001F00DFC342143
:1028A0004BF6021001F008FC08214FF4354001F00E
:1028B00003FC08214BF2015001F0FEFB08214BF212
:1028C000025001F0F9FB03214FF4424001F0F4FB08
:1028D00024214FF43A4001F0EFFB24214BF6012074
:1028E0000AE00000000C0140001401400018014003
:1028F00000200140040A002001F0DEFB24214BF6F9
:10290000022001F0D9FB00214FF43C4001F0D4FB40
:1029100078214BF6014001F0CFFB00214BF602403D
:1029200001F0CAFB00214FF43D4001F0C5FB7821C6
:102930004BF6015001F0C0FB00214BF6025001F0B4
:10294000BBFB00214FF43E4001F0B6FB64214BF687
:10295000016001F0B1FB00214FF4514001F0ACFBEC
:1029600033214DF2011001F0A7FB00214DF20210BE
:1029700001F0A2FB34214DF2031001F09DFB002178
:102980004DF2041001F098FB3A214DF2051001F0D0
:1029900093FB00214DF2061001F08EFB4A214DF20F
:1029A000071001F089FB00214DF2081001F084FBB3
:1029B0005C214DF2091001F07FFB00214DF20A105D
:1029C00001F07AFB81214DF20B1001F075FB002123
:1029D0004DF20C1001F070FBA6214DF20D1001F02C
:1029E0006BFB00214DF20E1001F066FBE5214DF26C
:1029F0000F1001F061FB01214DF2101001F05CFBA2
:102A000013214DF2111001F057FB01214DF212106C
:102A100001F052FB54214DF2131001F04DFB012146
:102A20004DF2141001F048FB82214DF2151001F017
:102A300043FB01214DF2161001F03EFBCA214DF27D
:102A4000171001F039FB02214DF2181001F034FB90
:102A500000214DF2191001F02FFB02214DF21A1046
:102A600001F02AFB01214DF21B1001F025FB022190
:102A70004DF21C1001F020FB34214DF21D1001F02D
:102A80001BFB02214DF21E1001F016FB67214DF2D7
:102A90001F1001F011FB02214DF2201001F00CFB80
:102AA00084214DF2211001F007FB02214DF222108A
:102AB00001F002FBA4214DF2231001F0FDFA0221E6
:102AC0004DF2241001F0F8FAB7214DF2251001F073
:102AD000F3FA02214DF2261001F0EEFACF214DF269
:102AE000271001F0E9FA02214DF2281001F0E4FA72
:102AF000DE214DF2291001F0DFFA02214DF22A10F9
:102B000001F0DAFAF2214DF22B1001F0D5FA022190
:102B10004DF22C1001F0D0FAFE214DF22D1001F0F3
:102B2000CBFA03214DF22E1001F0C6FA10214DF21E
:102B30002F1001F0C1FA03214DF2301001F0BCFA60
:102B400033214DF2311001F0B7FA03214DF232106A
:102B500001F0B2FA6D214DF2331001F0ADFA00210F
:102B60004FF4524001F0A8FA33214DF2012001F058
:102B7000A3FA00214DF2022001F09EFA34214DF219
:102B8000032001F099FA00214DF2042001F094FA9B
:102B90003A214DF2052001F08FFA00214DF2062076
:102BA00001F08AFA4A214DF2072001F085FA00214E
:102BB0004DF2082001F080FA5C214DF2092001F06D
:102BC0007BFA00214DF20A2001F076FA81214DF2C4
:102BD0000B2001F071FA00214DF20C2001F06CFA8B
:102BE000A6214DF20D2001F067FA00214DF20E20D2
:102BF00001F062FAE5214DF20F2001F05DFA0121AA
:102C00004DF2102001F058FA13214DF2112001F07D
:102C100053FA01214DF2122001F04EFA54214DF2E7
:102C2000132001F049FA01214DF2142001F044FA79
:102C300082214DF2152001F03FFA01214DF21620BC
:102C400001F03AFACA214DF2172001F035FA0221BB
:102C50004DF2182001F030FA00214DF2192001F058
:102C60002BFA02214DF21A2001F026FA01214DF231
:102C70001B2001F021FA02214DF21C2001F01CFA68
:102C800034214DF21D2001F017FA02214DF21E20D1
:102C900001F012FA67214DF21F2001F00DFA022116
:102CA0004DF2202001F008FA84214DF2212001F09C
:102CB00003FA02214DF2222001F0FEF9A4214DF287
:102CC000232001F0F9F902214DF2242001F0F4F95A
:102CD000B7214DF2252001F0EFF902214DF2262017
:102CE00001F0EAF9CF214DF2272001F0E5F90221A8
:102CF0004DF2282001F0E0F9DE214DF2292001F00B
:102D0000DBF902214DF22A2001F0D6F9F2214DF231
:102D10002B2001F0D1F902214DF22C2001F0CCF949
:102D2000FE214DF22D2001F0C7F903214DF22E2096
:102D300001F0C2F910214DF22F2001F0BDF903215D
:102D40004DF2302001F0B8F933214DF2312001F07D
:102D5000B3F903214DF2322001F0AEF96D214DF2AD
:102D6000332001F0A9F900214FF4534001F0A4F9F8
:102D700033214DF2013001F09FF900214DF2023074
:102D800001F09AF934214DF2033001F095F9002158
:102D90004DF2043001F090F93A214DF2053001F086
:102DA0008BF900214DF2063001F086F94A214DF2EF
:102DB000073001F081F900214DF2083001F07CF973
:102DC0005C214DF2093001F077F900214DF20A3013
:102DD00001F072F981214DF20B3001F06DF9002103
:102DE0004DF20C3001F068F9A6214DF20D3001F0E2
:102DF00063F900214DF20E3001F05EF9E5214DF24C
:102E00000F3001F059F901214DF2103001F054F961
:102E100013214DF2113001F04FF901214DF2123022
:102E200001F04AF954214DF2133001F045F9012126
:102E30004DF2143001F040F982214DF2153001F0CD
:102E40003BF901214DF2163001F036F9CA214DF25D
:102E5000173001F031F902214DF2183001F02CF950
:102E600000214DF2193001F027F902214DF21A30FC
:102E700001F022F901214DF21B3001F01DF9022170
:102E80004DF21C3001F018F934214DF21D3001F0E3
:102E900013F902214DF21E3001F00EF967214DF2B7
:102EA0001F3001F009F902214DF2203001F004F940
:102EB00084214DF2213001F0FFF802214DF2223041
:102EC00001F0FAF8A4214DF2233001F0F5F80221C7
:102ED0004DF2243001F0F0F8B7214DF2253001F029
:102EE000EBF802214DF2263001F0E6F8CF214DF249
:102EF000273001F0E1F802214DF2283001F0DCF832
:102F0000DE214DF2293001F0D7F802214DF22A30AE
:102F100001F0D2F8F2214DF22B3001F0CDF8022170
:102F20004DF22C3001F0C8F8FE214DF22D3001F0A9
:102F3000C3F803214DF22E3001F0BEF810214DF2FE
:102F40002F3001F0B9F803214DF2303001F0B4F820
:102F500033214DF2313001F0AFF803214DF2323020
:102F600001F0AAF86D214DF2333001F0A5F80021EF
:102F70004FF4544001F0A0F833214DF2014001F02C
:102F80009BF800214DF2024001F096F834214DF2F9
:102F9000034001F091F800214DF2044001F08CF85B
:102FA0003A214DF2054001F087F800214DF206402C
:102FB00001F082F84A214DF2074001F07DF800212E
:102FC0004DF2084001F078F85C214DF2094001F023
:102FD00073F800214DF20A4001F06EF881214DF2A4
:102FE0000B4001F069F800214DF20C4001F064F84B
:102FF000A6214DF20D4001F05FF800214DF20E4088
:1030000001F05AF8E5214DF20F4001F055F8012189
:103010004DF2104001F050F813214DF2114001F033
:103020004BF801214DF2124001F046F854214DF2C7
:10303000134001F041F801214DF2144001F03CF839
:1030400082214DF2154001F037F801214DF2164072
:1030500001F032F8CA214DF2174001F02DF802219B
:103060004DF2184001F028F800214DF2194001F00E
:1030700023F800E00CE302214DF21A4001F01CF8A5
:1030800001214DF21B4001F017F802214DF21C40C6
:1030900001F012F834214DF21D4001F00DF802212B
:1030A0004DF21E4001F008F867214DF21F4001F07B
:1030B00003F802214DF2204000F0FEFF84214DF282
:1030C000214000F0F9FF02214DF2224000F0F4FF10
:1030D000A4214DF2234000F0EFFF02214DF22440E5
:1030E00000F0EAFFB7214DF2254000F0E5FF022194
:1030F0004DF2264000F0E0FFCF214DF2274000F0D6
:10310000DBFF02214DF2284000F0D6FFDE214DF218
:10311000294000F0D1FF02214DF22A4000F0CCFFFF
:10312000F2214DF22B4000F0C7FF02214DF22C405E
:1031300000F0C2FFFE214DF22D4000F0BDFF032143
:103140004DF22E4000F0B8FF10214DF22F4000F05C
:10315000B3FF03214DF2304000F0AEFF33214DF2BA
:10316000314000F0A9FF03214DF2324000F0A4FFEE
:103170006D214DF2334000F09FFF00214FF4554088
:1031800000F09AFF33214DF2015000F095FF00212D
:103190004DF2025000F090FF34214DF2035000F048
:1031A0008BFF00214DF2045000F086FF3A214DF2D2
:1031B000055000F081FF00214DF2065000F07CFF29
:1031C0004A214DF2075000F077FF00214DF20850E0
:1031D00000F072FF5C214DF2095000F06DFF0021FC
:1031E0004DF20A5000F068FF81214DF20B5000F0C3
:1031F00063FF00214DF20C5000F05EFFA6214DF25E
:103200000D5000F059FF00214DF20E5000F054FF18
:10321000E5214DF20F5000F04FFF01214DF210500B
:1032200000F04AFF13214DF2115000F045FF01213B
:103230004DF2125000F040FF54214DF2135000F0B7
:103240003BFF01214DF2145000F036FF82214DF278
:10325000155000F031FF01214DF2165000F02CFF07
:10326000CA214DF2175000F027FF02214DF21850ED
:1032700000F022FF00214DF2195000F01DFF022145
:103280004DF21A5000F018FF01214DF21B5000F0D2
:1032900013FF02214DF21C5000F00EFF34214DF2BD
:1032A0001D5000F009FF02214DF21E5000F004FFF6
:1032B00067214DF21F5000F0FFFE02214DF2205019
:1032C00000F0FAFE84214DF2215000F0F5FE0221BB
:1032D0004DF2225000F0F0FEA4214DF2235000F0F8
:1032E000EBFE02214DF2245000F0E6FEB7214DF234
:1032F000255000F0E1FE02214DF2265000F0DCFEE8
:10330000CF214DF2275000F0D7FE02214DF2285078
:1033100000F0D2FEDE214DF2295000F0CDFE022158
:103320004DF22A5000F0C8FEF2214DF22B5000F071
:10333000C3FE02214DF22C5000F0BEFEFE214DF2E4
:103340002D5000F0B9FE03214DF22E5000F0B4FED6
:1033500010214DF22F5000F0AFFE03214DF23050FE
:1033600000F0AAFE33214DF2315000F0A5FE0321FA
:103370004DF2325000F0A0FE6D214DF2335000F0BE
:103380009BFE00214FF4564000F096FE33214DF293
:10339000016000F091FE00214DF2026000F08CFE11
:1033A00034214DF2036000F087FE00214DF20460ED
:1033B00000F082FE3A214DF2056000F07DFE002112
:1033C0004DF2066000F078FE4A214DF2076000F0F1
:1033D00073FE00214DF2086000F06EFE5C214DF29C
:1033E000096000F069FE00214DF20A6000F064FE01
:1033F00081214DF20B6000F05FFE00214DF20C6068
:1034000000F05AFEA6214DF20D6000F055FE00219D
:103410004DF20E6000F050FEE5214DF20F6000F01D
:103420004BFE01214DF2106000F046FE13214DF2DB
:10343000116000F041FE01214DF2126000F03CFEEF
:1034400054214DF2136000F037FE01214DF214605B
:1034500000F032FE82214DF2156000F02DFE0121B8
:103460004DF2166000F028FECA214DF2176000F000
:1034700023FE02214DF2186000F01EFE00214DF2E5
:10348000196000F019FE02214DF21A6000F014FEDE
:1034900001214DF21B6000F00FFE02214DF21C6075
:1034A00000F00AFE34214DF21D6000F005FE0221FD
:1034B0004DF21E6000F000FE67214DF21F6000F02B
:1034C000FBFD02214DF2206000F0F6FD84214DF25B
:1034D000216000F0F1FD02214DF2226000F0ECFDD0
:1034E000A4214DF2236000F0E7FD02214DF224609B
:1034F00000F0E2FDB7214DF2256000F0DDFD022174
:103500004DF2266000F0D8FDCF214DF2276000F08B
:10351000D3FD02214DF2286000F0CEFDDE214DF2F8
:10352000296000F0C9FD02214DF22A6000F0C4FDBF
:10353000F2214DF22B6000F0BFFD02214DF22C6014
:1035400000F0BAFDFE214DF22D6000F0B5FD032123
:103550004DF22E6000F0B0FD10214DF22F6000F012
:10356000ABFD03214DF2306000F0A6FD33214DF29A
:10357000316000F0A1FD03214DF2326000F09CFDAE
:103580006D214DF2336000F097FD55214FF47040EE
:1035900000F092FDAA214FF2010000F08DFD5221B2
:1035A0004FF2020000F088FD08214FF2030000F006
:1035B00083FD00214FF2040000F07EFDCC214FF48A
:1035C000314000F079FD00214BF2011000F074FD54
:1035D00005214FF4364000F06FFD70214FF4374065
:1035E00000F06AFD70214BF2017000F065FD0121D1
:1035F0004FF4384000F060FD03214BF6010000F06D
:103600005BFD03214BF6020000F056FD03214BF653
:10361000030000F051FD02214FF43C4000F04CFD4E
:1036200000214BF6014000F047FD00214BF602401F
:1036300000F042FDD0214FF4494000F03DFD022151
:103640004CF6011000F038FD50214CF6021000F04D
:1036500033FD50214CF6031000F02EFD50214CF6A6
:10366000041000F029FD00214FF4545000F024FD17
:1036700055214FF4685000F01FFD4FF4885000F0C2
:103680000BFD782003F022FE4FF4245000F004FDDF
:103690000020FEF7DFFC0120034908600348008892
:1036A000FEF7BEFC1FB000BD808121423C0000201F
:1036B00010B50246012000E050430B00A1F10104C7
:1036C000E1B2F9D110BD000008B5034800880090B0
:1036D000BDF8000008BD00000008006C2DE9F041B5
:1036E00005460E4600240027A04656480088A842FA
:1036F00003DD54484088B04202DC0020BDE8F08180
:103700003146284600F01AFA4E48808849F2413185
:10371000884211D04B48808846F6040188420BD07D
:103720004848808845F21031884205D04548808855
:1037300041F66311884203D12E2000F0ADFC0DE06C
:103740004048808845F21051884204D14FF43850E7
:1037500000F0A2FC02E0222000F09EFC39488088A4
:1037600049F22031884202D1022009F02AFFFFF7F6
:10377000ABFF04463348808841F66311884201D18B
:103780002046BBE7022009F01CFFFFF79DFF04461F
:103790002C48808849F2413188420BD029488088E2
:1037A00045F21031884205D02648808845F21051F4
:1037B00088420AD1022009F004FFFFF785FF804606
:1037C000E7B24FF6FF7000EA07271E48808849F2EB
:1037D0002531884216D01B48808844F235518842F2
:1037E00010D018488088091F88420BD0154880885F
:1037F0004BF20551884205D0124880884CF20551A1
:10380000884201D1204679E70E48808849F241314B
:1038100088420BD00B48808845F21031884205D091
:103820000848808845F21051884207D1E012C00252
:10383000B91240EA411040EAE8205FE72046FEF76F
:10384000E1FB5BE7040A002010B50446204600F0C7
:1038500023FC052003F03AFDFFF736FF10BD000002
:1038600070B5044600230026B348807901280BD1A7
:10387000B148808846F60401884205D0AE48808869
:1038800041F66311884208D1AB488079F0B9AA4863
:10389000808841F66311884218D1082C15D2DFE8E0
:1038A00004F00406080A0C0E101206240DE007248A
:1038B0000BE0042409E0052407E0012405E00024CE
:1038C00003E0032401E0022400BF00BF9A4880887F
:1038D00049F24131884217D09748808846F6040162
:1038E000884211D09448808845F2103188420BD02C
:1038F0009148808845F21051884205D08E488088D2
:1039000041F6631188427DD18B48808845F2105181
:10391000884202D14FF4585600E036268648808807
:1039200045F2103188420DD08348808845F210510D
:10393000884207D08048808841F66311884201D0D0
:1039400043F00803082C1CD2DFE804F00406090C3D
:103950000F12151800BF14E043F0800311E043F08C
:1039600040030EE043F0C0030BE043F0200308E007
:1039700043F0600305E043F0A00302E043F0E003FE
:1039800000BF00BF1946304600F096FB6A488088A9
:1039900041F6631188421DD003F0200068B16648EB
:1039A000008865494988884214DA63480588408858
:1039B00061490880084645800CE05F4800885E4900
:1039C0004988884206DD5C48058840885A49088055
:1039D000084645805848808845F21051884254D1A5
:1039E0005549488900F058FB002000F04FFB524930
:1039F0004989491C88B200F04FFB002000F046FBCB
:103A00004D4900E070E04989891C88B200F044FB10
:103A100049490988491EC1F30F2000F037FB464988
:103A20004989C91C88B200F037FB43490978491E0F
:103A3000C8B200F02BFB4049888900F02DFB002024
:103A400000F024FB3C498989491C88B200F024FB22
:103A5000002000F01BFB38498989891C88B200F0DE
:103A60001BFB35494988491EC1F30F2000F00EFBAE
:103A700031498989C91C88B200F00EFB2E4989782A
:103A8000491EC8B200F002FB55E02B49488900F0FE
:103A900003FB002000F0FAFA002000F0F7FA2649B4
:103AA0000988491EC1F30F2000F0F0FA2249097875
:103AB000491EC8B200F0EAFA1F49888900F0ECFA02
:103AC000002000F0E3FA002000F0E0FA1A494988EB
:103AD000491EC1F30F2000F0D9FA17498978491E11
:103AE000C8B200F0D3FA26E0082C1CD2DFE804F0BC
:103AF00004070A0D0F12151843F0300313E043F0CA
:103B0000100310E043F020030DE000BF0BE043F092
:103B1000380308E043F0280305E043F0180302E00F
:103B200043F0080300BF00BF032643F48053194647
:103B3000304600F0C1FA70BD040A002010B50346FB
:103B40000C466748808849F24131884205D0644874
:103B5000808845F21031884214D16149488900F0CB
:103B60009BFA181200F092FAD8B200F08FFA5C4972
:103B7000888900F091FA201200F088FAE0B200F093
:103B800085FAABE05648808846F6040188421DD18C
:103B900053488079012804D151480088401EC01A3A
:103BA00083B24F49488900F077FA181200F06EFA94
:103BB000D8B200F06BFA4A49888900F06DFA2012F9
:103BC00000F064FAE0B200F061FA87E044488088CF
:103BD00041F66311884247D141488079A8B94048ED
:103BE0000088401EC01A83B23D49488900F054FA4B
:103BF000002000F04BFA002000F048FA181200F004
:103C000045FAD8B200F042FA16E03549488900F08A
:103C100043FA181200F03AFAD8B200F037FA3049F5
:103C20000988491EC1F30F2000F030FA2C490978A9
:103C3000491EC8B200F02AFA2949888900F02CFAF6
:103C4000201200F023FAE0B200F020FA244949885B
:103C5000491EC1F30F2000F019FA21498978491E45
:103C6000C8B200F013FA39E01D48808845F21051BF
:103C7000884220D11A49488900F00EFA181200F043
:103C800005FA17494989491C88B200F005FAD8B2EB
:103C900000F0FCF91249888900F0FEF9201200F0CA
:103CA000F5F90F498989491C88B200F0F5F9E0B2AD
:103CB00000F0ECF912E00A488079012804D10848A4
:103CC0000088401EC01A83B205494889194600F091
:103CD000F3F903498889214600F0EEF910BD000090
:103CE000040A00202DE9F84F80460E4617461C4670
:103CF000B3462046E31704EB5373DB1021464FEA2B
:103D0000E47C04EB5C7C4FEAEC0CA4EBCC0CBCF147
:103D1000000F02D04FF0010C01E04FF0000C6344A3
:103D2000224604EBD27C4FEA6C0C03FB0CF3DBB2B3
:103D30000093A7F12000C7B2002556E00C2C07D154
:103D400007EB47002B4901EB800010F8059013E0CA
:103D5000102C05D1284800EB071010F805900BE057
:103D6000182C07D107EBC700244901EB800010F89D
:103D7000059001E0BDE8F88F4FF0000A2FE009F050
:103D8000800030B11E48028831464046FEF77CFA7A
:103D900007E00A9828B91B48028831464046FEF7DA
:103DA00073FA4FEA49604FEA1069701C86B21648F0
:103DB0004088B04200DCDDE7A6EB0B00A0420AD150
:103DC0005E4608F101001FFA80F80F480088404560
:103DD00000DCCFE706E00AF1010000F0FF0ABAF1CB
:103DE000080FCCDB00BF681CC5B200988542A5DB7C
:103DF00000BFBFE7F85F01086C6401085C6A010856
:103E00003A0000203C000020040A00202DE9F84F71
:103E100080460E4617461C46B3462046E31704EB81
:103E20005373DB1021464FEAE47C04EB5C7C4FEAE1
:103E3000EC0CA4EBCC0CBCF1000F02D04FF0010C49
:103E400001E04FF0000C6344224604EBD27C4FEAC1
:103E50006C0C03FB0CF3DBB20093A7F12000C7B29C
:103E6000002554E00C2C07D107EB47002A4901EB51
:103E7000800010F8059013E0102C05D1274800EBC6
:103E8000071010F805900BE0182C07D107EBC700BE
:103E9000234901EB800010F8059001E0BDE8F88FA0
:103EA0004FF0000A2DE009F0800028B1314640466D
:103EB0000B9AFEF7E9F906E00A9820B93146404628
:103EC0000B9AFEF7E1F94FEA49604FEA1069701C5E
:103ED00086B214484088B04200DCDFE7A6EB0B0056
:103EE000A0420AD15E4608F101001FFA80F80D4891
:103EF0000088404500DCD1E706E00AF1010000F04F
:103F0000FF0ABAF1080FCEDB00BF681CC5B20098EB
:103F10008542A7DB00BFC1E7F85F01086C640108B8
:103F20005C6A0108040A00202DE9FF4F81B00746B2
:103F300091461E460E9D4FF0000A002439E0301BCA
:103F4000401EC1B20A20FFF7B3FBB9FBF0F00A2113
:103F5000B0FBF1F201FB1208BAF1000F16D1701E8E
:103F6000A04213DDB8F1000F0ED10120AB4605EBE6
:103F7000DB71491001FB0471009088B22B462022AE
:103F80000299FFF7AFFE12E04FF0010A0120AB46A5
:103F900005EBDB71491001FB0471009088B208F158
:103FA0003001CAB22B460299FFF79CFE00BF601C8D
:103FB000C4B2B442C3DB05B0BDE8F08F2DE9F847C9
:103FC00004460D4690469946DDE9096704F0FF0A6C
:103FD00008EB04001FFA80F809EB05001FFA80F9CE
:103FE00016E0444502DB5446A81985B24D4500DB76
:103FF00014E0002000903A78334629462046FFF727
:1040000071FE304606EBD07104EB61018CB27F1C6F
:1040100038787E2802DC38782028E2DA00BFBDE854
:10402000F8872DE9FC4F04460D4690469946DDE998
:104030000C7A0B9E04F0FF0B08EB04001FFA80F8CB
:1040400009EB05001FFA80F917E0444502DB5C46E6
:10405000A81985B24D4500DB15E00120CDE9000A25
:104060003A78334629462046FFF7D0FE304606EB25
:10407000D07104EB61018CB27F1C38787E2802DCA1
:1040800038782028E1DA00BFBDE8FC8F01490880BC
:10409000704700000008006C01490880704700006C
:1040A000FE07006C02480089024908807047000042
:1040B000040A0020FE07006C024A1080921C118046
:1040C00070470000FE07006C08B50121482000F091
:1040D00087F82020ADF8000010208DF803000320A1
:1040E0008DF8020069460948FDF720FE20210748A7
:1040F000FDF7B0FE2020ADF8000069460448FDF74A
:1041000015FE20210248FDF7A5FE08BD000C014068
:104110000018014000BFFEE77047000070B50021A5
:1041200000230F22C47804B3154C246804F4E0641F
:10413000C4F5E064210AC1F10403CA40447804FADA
:1041400003F184781440214309010E4C0678A155EF
:10415000047804F01F050124AC4005786D11AD0012
:1041600005F1E025C5F8004109E0047804F01F05D9
:104170000124AC40044D0678761145F8264070BD08
:104180000CED00E000E400E080E100E002490143C2
:10419000024A1160704700000000FA050CED00E0D3
:1041A00029B1064A52690243044B5A6104E0034AAA
:1041B00052698243014B5A6170470000001002406F
:1041C00029B1064AD2690243044BDA6104E0034A8A
:1041D000D2698243014BDA6170470000001002404F
:1041E00029B1064A92690243044B9A6104E0034AEA
:1041F00092698243014B9A617047000000100240AF
:1042000030B500210022002400232D4D6D6805F0FB
:104210000C0121B1042905D0082923D105E0294D3D
:10422000056022E0274D05601FE0254D6D6805F40F
:104230007012234D6D6805F48034022505EB92421F
:104240001CB9214D554305600BE01D4D6D6805F40B
:1042500000351DB11C4D5543056002E0194D554315
:10426000056002E0174D056000BF00BF144D6D688A
:1042700005F0F0010909154D6B5C0568DD404560EE
:104280000F4D6D6805F4E061090A104D6B5C4568DF
:10429000DD4085600A4D6D6805F46051C90A0B4D1B
:1042A0006B5C4568DD40C560054D6D6805F44041B7
:1042B000890B074D6B5CC568B5FBF3F5056130BD37
:1042C0000010024000127A0000093D001C0000208E
:1042D0002C0000207CB505460024002000900190B1
:1042E00000260DB1022600E000262248406900F0B9
:1042F000007008B10E207CBD1F49098888B269464C
:10430000FDF72AFC04460CB12046F4E7019800F4BE
:10431000802060B3184800880004184908603720DE
:104320004860402088600020C8604FF480600861C9
:10433000084600F0A1F83720FCF722FC04460CB137
:104340002046D8E70D48066006200C49486040200A
:1043500088600020C8604FF480600861084600F063
:104360008BF80620FCF70CFC04462046C3E725200A
:10437000C1E70000008001404400002040120020FE
:1043800001498863704700000080014001490860CE
:1043900070470000A00030420146034A506820F0F8
:1043A000FF000843506070470080014001490860E9
:1043B000704700008C05304200210A4B02685A62A7
:1043C00042689A621A46D16A21F0F701D0E90223C5
:1043D0001A4303691A4343691A431143014AD162DC
:1043E00070470000008001400020064908604860D6
:1043F0008860C86048628862C86203488863002099
:10440000C863704700800140FF07C00001460020DC
:10441000034A526B0A400AB1012000E000207047B5
:10442000008001400248006800F00300704700006F
:104430000080014010B500F053FC10BD00210A4A75
:10444000516847F6FF629143027D83681A434368CF
:104450001A43C3681A4303681A4303691A43114392
:10446000014A516070470000008001400148006827
:1044700070470000808001400021094B02689A606B
:104480001A46D1686FF30A01D0E901231A43C368C1
:104490001A4303691A431143014AD160704700006F
:1044A000008001400549096821F00301034A1160B9
:1044B0001146096801431160704700000080014007
:1044C00001490860704700008080014070B58CB0E1
:1044D00006460C46154601210220FFF761FE1348EF
:1044E000FDF79AF800211148FDF78AF8104801906D
:1044F00002960395A0080490002005908020069065
:104500008000079080000890002009904FF4005030
:104510000A9000200B9001A90448FDF723F900211F
:104520000248FDF76DF80CB070BD00004404024075
:104530008080014070B504460025164800780328A5
:1045400001D1272070BD1348007838B11148007898
:10455000012803D00F480078022818D1022C01D37B
:104560002720EFE7E0B2FFF7B5FE05467DB90A4820
:10457000406820F4C0500849486008464068A1B22D
:1045800040EAC1200449486008464068486028461F
:10459000D8E700004000002000800140F0B501464F
:1045A00000200022BE4B1B7881F85630BD4B1B8883
:1045B000A1F85430BC4B1B681A0E93090B70C2F360
:1045C00083034B7002F003038B70B74B1B68C3F37C
:1045D0000742CA70B44B1B88C3F307220A71B24B5F
:1045E0001A784A715B681A0E1301CB80AE4B5B6878
:1045F000C3F30742CB8843EA1213CB8002F00F03C8
:104600000B72A94B9B88C3F30722D3094B72C2F3E9
:1046100080138B72C2F34013CB72C2F300130B737F
:1046200000234B739E4B1B783BB19D4B1B78012B9A
:1046300003D09B4B1B78032B4FD193071B0D0B61B2
:10464000994B1A790B6943EA82030B61964B9B687D
:104650001A0E0B6943EA92130B61C2F3C2030B7586
:1046600002F007034B75904B9B68C3F30742530955
:104670008B75C2F38203CB7593075B0F0B768A4B66
:104680001B89C3F307220B7E43EAD2130B760B6917
:104690005B1C0024C1E912340B7E9B1C012404FA2C
:1046A00003F3DC17D1E91256A5FB037C06FB03C319
:1046B00005FB0433C1E912730C7A0123A3400B6597
:1046C0000024D1E912650B6DA6FB037C05FB03C337
:1046D00006FB0433C1E912732EE0714B1B78022BE9
:1046E0002AD1714B1A7993069B0A0B616E4B9B681A
:1046F0001A0E0B6943EA02230B616B4B9B68C3F3F1
:1047000007420B6913430B61674B1B89C3F30722F5
:104710000B695B1C4FF40074A3FB04464FF48063E9
:104720000025A4FB037C06FB03C304FB0533C1E99E
:1047300012734FF400730B65C2F3801301F8193F35
:1047400093065B0E4B70584B1A7A4B7843EAD213A0
:104750004B7002F07F038B70534BDB681A0ED3094A
:10476000CB70C2F341130B71C2F382034B719307F9
:104770001B0F8B714C4BDB68C3F307428B7943EA09
:1047800092138B71C2F34013CB7100230B7202F0B2
:1047900001034B72444B9B89C3F30722D3098B72ED
:1047A000C2F38013CB72C2F340130B73C2F3001336
:1047B0004B73C2F381038B7302F00303CB733A4B49
:1047C0001A7B53080B7401234B74384B1B681A0E69
:1047D000CA741939354B1B68C3F307421402CC85E0
:1047E000324B1B88C3F30722CB8D1343CB852F4B52
:1047F0001A7814060C635B681A0E0B6B43EA0244CA
:104800000C632A4B5B68C3F307420B6B43EA022439
:104810000C63264B9B88C3F307220B6B13430B637C
:10482000224B1A7934235A54204B9B681A0E352395
:104830005A541E4B9B68C3F3074214068C631B4BF0
:104840001B89C3F307228B6B43EA02448C63174B2B
:104850001A7A8B6B43EA02248C63144BDB681A0EC2
:104860008B6B13438B63114BDB68C3F307423C2311
:104870005B5C43EA12143C235C5413071C0DCC8789
:104880000A4B9B89C3F30722CB8F1343CB87074B7C
:104890001A7B540840235C54012441235C54F0BD2E
:1048A00040000020440000206C1200207C120020F8
:1048B0007CB50025002401213020FFF791FC012167
:1048C00040F20240FFF76CFC4FF4F850ADF80000E6
:1048D00018208DF8030003208DF802006946304847
:1048E000FDF724FA0420ADF8000018208DF803002D
:1048F00003208DF8020069462A48FDF717FA802048
:10490000ADF8000048208DF8030003208DF8020068
:1049100069462448FDF70AFAFFF766FD31208DF855
:10492000040006208DF8050000208DF80600012007
:104930008DF8070001A8FFF7F1FB00F0E3F804464B
:1049400014B900F035F804461CB91748FFF726FEE5
:10495000044634B91449B1F85410080400F04AFD73
:1049600004461CB90120FFF7E5FD04461CB10F48C1
:104970000078032812D10C4890F8560020B10A485C
:1049800090F85600012801D10A2500E004252846A8
:10499000FFF702FD002000F045FD044620467CBDE7
:1049A000001001400014014090120020400000203F
:1049B00038B5002401200090FFF734FD08B9252008
:1049C00038BD4A480078042821D0002048490860B2
:1049D00002204860C02088600020C8604FF48060DA
:1049E00008610846FFF748FDFCF7FAF804460CB1E9
:1049F0002046E5E73F4840693F4908603D488069F7
:104A000048603C48C06988603A48006AC8603748D6
:104A1000007858B135480078012807D0334800782D
:104A2000062803D031480078022816D100203049EA
:104A3000086003204860402088600020C8604FF470
:104A4000806008610846FFF717FD69460320FCF700
:104A50000DF904460CB12046B2E72448007803283B
:104A600016D1BDF800000004214908600320486009
:104A7000402088600020C8604FF4806008610846CC
:104A8000FFF7FAFCFCF7ACF804460CB1204697E7B8
:104A900016480078042827D0BDF8000017490860A0
:104AA000BDF8000000041249086009204860C020D9
:104AB00088600020C8604FF4806008610846FFF7F6
:104AC000DBFCFCF78DF804460CB1204678E709487A
:104AD00040690B4908600748806948600548C0691B
:104AE00088600448006AC860002069E74000002030
:104AF00040120020008001407C1200204400002071
:104B00006C1200202DE9F047002700240026002524
:104B1000A046A146B2206C49087500200860486094
:104B20008860C86008610846FFF788FC0320FFF72B
:104B3000B9FC0120FFF72AFC00BF12E00020634906
:104B4000086048608860C8604FF48060086108466B
:104B5000FFF792FCFBF7FBFF044604B903E0781C67
:104B6000C7B24A2FEADB00BF14B12046BDE8F08788
:104B70004FF4D5705549086008204860402088608F
:104B80000020C8604FF4806008610846FFF774FC9D
:104B9000FCF7B4F8044624B901204D4908704FF0E1
:104BA00080490020494908603720486040208860DB
:104BB0000020C8604FF4806008610846FFF75CFC85
:104BC0003720FBF7DDFF0446002C4BD134E00020FA
:104BD0003E49086037204860402088600020C86057
:104BE0004FF4806008610846FFF746FC3720FBF76A
:104BF000C7FF04460CB12046B8E7364849EA000032
:104C00003249086029204860402088600020C86040
:104C10004FF4806008610846FFF72EFCFCF70AF8A5
:104C200004460CB12046A1E72B484669012080EAE2
:104C3000D67080F001086D1CB8F1000F03D14FF65B
:104C4000FF708542C3D34FF6FF70854202D31B2409
:104C500020468BE706F08040060032D002201C4937
:104C600008702EE01CE01D481849086001204860CB
:104C7000402088600020C8604FF4806008610846CA
:104C8000FFF7FAFBFBF7D6FF04460CB120466DE7B1
:104C900011484669012080EAD67080F001086D1C39
:104CA000B8F1000F03D14FF6FF708542DBD34FF60A
:104CB000FF70854202D31B24204657E70320044996
:104CC0000870204652E70000281200204012002001
:104CD0004000002000001080008001400080FF8024
:104CE00010B54948406B00F4807070B347480078B5
:104CF000012814D10020464908600C20486040205B
:104D000088600020C8604FF4806008610846FFF7A3
:104D1000B3FB0C20FBF734FF3E49087002E0002093
:104D20003C4908703848806B40F48070364988638D
:104D30000846C06B4CF23A3188433349C8630120BE
:104D4000354908703348007810BDFFE70220FFF7AF
:104D50005DFB68B10220FFF713FB2B48C06B4CF2E0
:104D60003A3188432849C86302202A490870EBE792
:104D70000820FFF74BFB68B10820FFF701FB224832
:104D8000C06B4CF23A3188431F49C8630420214963
:104D90000870D9E72020FFF739FB68B12020FFF722
:104DA000EFFA1948C06B4CF23A3188431649C86390
:104DB000062018490870C7E71020FFF727FB68B1E5
:104DC0001020FFF7DDFA1048C06B4CF23A318843EF
:104DD0000D49C86305200F490870B5E74FF400700E
:104DE000FFF714FB70B14FF40070FFF7C9FA0648E3
:104DF000C06B4CF23A3188430349C8630720054928
:104E00000870A1E700209FE70080014049000020D2
:104E1000401200204A0000204B0000202DE9F84FEE
:104E20008146174698460A9C4FF0000AD3464D46E5
:104E30004FF0FF36B9F1000F02D12620BDE8F88F00
:104E400000208249C86282480078022805D1040205
:104E5000780A40EAC8574FEA682800207D498860F0
:104E60004860401E0860012048610020C860086159
:104E70000846FFF7A1FA7548406900F0007008B1D4
:104E80000E20DBE7002C21DDB4F5006F1EDC601E78
:104E90002040D8B9204602F01FF800906E48046008
:104EA00010206D494860402088600020C8604FF4A1
:104EB000806008610846FFF7DFFA1020FBF760FE0C
:104EC0008246BAF1000F03D05046B7E72620B5E777
:104ED000009800015F498860084644604FF0FF3049
:104EE0000860012048610220C8600020086108466F
:104EF000FFF762FA58480760112057494860402080
:104F000088600020C8604FF4806008610846FFF7A1
:104F1000B3FA1120FBF734FE8246BAF1000F01D03C
:104F200050468BE74D48007800285AD1FCF796FF91
:104F300018E04FF40040FFF769FA78B14FF0000B2A
:104F400006E042488030006845F82B000BF1010B69
:104F5000BBF1080FF5D32035414E03E00EB9042014
:104F60006CE7761E3948406B40F22A610840002801
:104F7000DFD00820FFF74AFA20B10820FFF700FA37
:104F800004205BE70220FFF741FA20B10220FFF77F
:104F9000F7F9022052E72020FFF738FA20B120204D
:104FA000FFF7EEF9062049E74FF40070FFF72EFAFD
:104FB00028B14FF40070FFF7E3F907203EE703E064
:104FC000FFF754FA28602D1D4FF40010FFF71EFA6A
:104FD0000028F5D1FCF744FF40F2FF50FFF7D0F96D
:104FE00031E01E48007801282DD100222146484694
:104FF000FFF76CFA00201B4908701B4908701B4919
:1050000008701248C06B40F22A3108430F49C86348
:105010000120FFF7CBF900E0761E1548006800F488
:10502000005038B91148007820B90E48007808B906
:10503000002EF1D10EB9042000E70A48007810B123
:10504000084890F800A05046F8E6000000800140B3
:105050004000002054120020401200204800002090
:10506000FFFF7F004A000020490000204B00002085
:10507000000402402DE9FE4F83460C469146002075
:105080000290002625462C46700240EAD5566D0255
:105090000BF00300F0B14FF0000A18E04FF400707D
:1050A00000904FEA4A20471946EBE0733A4616480B
:1050B000FFF7B4FE02904FF4007213495846FBF715
:1050C0002EFB0BF5007B0AF1010000F0FF0ACA4538
:1050D000E4DB16E0B9F1010F09D14FF400702A4664
:1050E000334600905846FFF799FE029009E04FF4CE
:1050F00000702A463346CDE90009584600F006F80C
:1051000002900298BDE8FE8FE81200202DE9FF5FB3
:1051100017469846DDE90E464FF00009CA464FF0A3
:10512000FF35A949009808600020A849C862A8482E
:105130000078022805D10402780A40EAC8574FEAED
:1051400068280020A34988604860401E086001204C
:1051500048610020C86008610846FFF72DF99B48A8
:10516000406900F0007018B10E2004B0BDE8F09F57
:10517000002C21DDB4F5006F1EDC601E2040D8B984
:10518000204601F0A9FE834693480460102092490E
:105190004860402088600020C8604FF4806008614B
:1051A0000846FFF769F91020FBF7EAFC8146B9F1E0
:1051B000000F03D04846D8E72620D6E7012E70D945
:1051C00006FB04F0B0F1007F01D32620CDE74FEAC3
:1051D0000B108049886006FB04F048604FF0FF30F8
:1051E0000860012048610220C8600020086108466C
:1051F000FFF7E2F8784807601220774948604020BE
:1052000088600020C8604FF4806008610846FFF79E
:1052100033F91220FBF7B4FC8146B9F1000F01D03D
:105220004846A2E76D48007800287DD1FCF716FEBD
:105230001EE04FF40040FFF7E9F8A8B14FF0000A74
:1052400008E06248803000685F49096841F82A0038
:105250000AF1010ABAF1080FF3D35B480068203065
:10526000594908605E4D03E00DB904207DE76D1ECD
:105270005648406B40F22A3108400028D9D0082017
:10528000FFF7C4F820B10820FFF77AF804206CE794
:105290000220FFF7BBF828B10220FFF771F80220C7
:1052A00063E78EE02020FFF7B1F820B12020FFF760
:1052B00067F8062059E74FF40070FFF7A7F828B108
:1052C0004FF40070FFF75CF807204EE709E0FFF7A6
:1052D000CDF83D49096808603B480068001D3A491F
:1052E00008604FF40010FFF791F80028EFD14FF459
:1052F0008070FFF78BF820B33548007838B1344818
:105300000078012803D032480078022819D1002003
:10531000314908600C204860402088600020C86047
:105320004FF48060086100E012E00846FFF7A4F83F
:105330000C20FBF725FC8146B9F1000F01D048464F
:1053400013E7FCF78DFD40F2FF50FFF719F838E046
:1053500022480078012834D106FB04F1002200988D
:10536000FFF7B4F800201F49087001201E4908709B
:1053700000201E4908701548C06B40F22A310843CE
:105380001249C8630846C06A40F00800C86200E0DD
:105390006D1E1748006800F4005008B9002DF7D1C1
:1053A0000DB90420E1E600BF1048007818B90D4897
:1053B00000780028F8D00B48007810B1094890F820
:1053C00000904846D1E600004C00002000800140DB
:1053D000400000205412002040120020480000200D
:1053E000FFFF7F004A000020490000204B00002002
:1053F0000004024010B5044609480460072008492B
:105400004860402088600020C8604FF480600861D8
:105410000846FFF731F80720FBF7B2FB10BD00008C
:105420004012002001460020012900D011B9024B92
:10543000197000E026207047480000202DE9FF5F2A
:1054400086B017469846149D0026002005900490CB
:10545000002481460390824602900195DDF818B041
:10546000DDF818B0BBF1000F03D126200AB0BDE86B
:10547000F09F0020C449C862C44988604860401E4B
:105480000860012048610020C86008610846FEF7F6
:1054900093FFBD48406900F0007008B10E20E5E7B9
:1054A000BB480078022805D10502780A40EAC857AF
:1054B0004FEA6828002D1FDDB5F5006F1CDC681E63
:1054C0002840C8B9284601F007FD0590B14805609D
:1054D0001020B0494860402088600020C8604FF428
:1054E000806008610846FEF7C7FF1020FBF748FB05
:1054F00006461EB13046B9E72620B7E7A648008821
:105500000004A44908600D20486040208860002005
:10551000C8604FF4806008610846FEF7ADFF0D20BB
:10552000FBF72EFB06460EB130469FE796484069D2
:1055300003904FF0FF341BE0641E9748008800047E
:10554000944908600D204860402088600020C860B1
:105550004FF4806008610846FEF78EFF0D20FBF7D0
:105560000FFB06460EB1304680E78748406903903E
:10557000039800F4807008B9002CDDD10CB9292003
:1055800074E784480760182082494860402088609A
:105590000020C8604FF4806008610846FEF76CFF89
:1055A0001820FBF7EDFA06460EB130465EE7002004
:1055B0007A4908700598000174498860084645607A
:1055C0004FF0FF300860012048610020C86008618A
:1055D0000846FEF7F1FE4FF0FF34714800780028CE
:1055E0007BD1FCF73BFC43E04FF48040FEF70EFF1D
:1055F000C8B30198A0EB0900202821D20198A0EBA4
:10560000090000F0030020B90198A0EB0900800810
:1056100004E00198A0EB09008008401C02904FF0C4
:10562000000A09E0DBF80000FEF74AFF0AF1010A70
:105630000BF1040B09F1040902988245F2D30FE043
:105640004FF0000A05E05BF82A00FEF739FF0AF187
:10565000010ABAF1080FF6D30BF1200B09F120096A
:105660006FF0404404E0FFE70CB90420FEE6641E3E
:105670004548406B40F21A6108400028B4D0082029
:10568000FEF7C4FE20B10820FEF77AFE0420EDE606
:105690000220FEF7BBFE20B10220FEF771FE0220C1
:1056A000E4E61020FEF7B2FE20B11020FEF768FEFF
:1056B0000520DBE64FF40070FEF7A8FE30B14FF492
:1056C0000070FEF75DFE0720D0E606E0FCF7C8FBA1
:1056D00040F2FF502C4988633EE0314800780128B1
:1056E0003AD1102229460698FEF7F0FE00202D49F7
:1056F00008702A4908702C4908702348C06B40F292
:105700001A3108432049C8630846C06A40F00800BF
:10571000C86200E0641E2548006800F4005008B923
:10572000002CF7D11CB9FFF7C3F804209EE64FF018
:10573000FF3400E0641E1C48007820B91948007846
:1057400008B9002CF6D10CB904208FE61548007872
:1057500010B11448007889E640F2FF50FEF710FEC1
:1057600004A8FCF77FFB064603E004A8FCF77AFBDD
:1057700006463EB99DF810000728F6D09DF81000A7
:105780000628F2D0304671E6008001405412002015
:10579000400000204012002044000020490000206A
:1057A000480000204A0000204B0000200004024076
:1057B0002DE9FE4F81460C469246002002900026BD
:1057C00025462C46700240EAD5566D0209F00300CA
:1057D000F0B14FF0000B18E04FF400724946194841
:1057E000FAF79DFF4FF4007000904FEA4B204719E5
:1057F00046EBE0733A461348FFF720FE029009F5A6
:1058000000790BF1010000F0FF0BD345E4DB16E05B
:10581000BAF1010F09D14FF400702A4633460090C7
:105820004846FFF70BFE029009E04FF400702A464D
:105830003346CDE9000A484600F006F80290029887
:10584000BDE8FE8FE81200202DE9FF5F84B0DDE99E
:1058500012470026002003900290002580468146D2
:10586000019007FB04FBDDF810A0DDF810A0BAF1F1
:10587000000F03D1262008B0BDE8F09F0020D849D2
:10588000C862D84988604860401E086001204861AD
:105890000020C86008610846FEF78EFDD0484069C8
:1058A00000F0007008B10E20E5E7CF48007802282C
:1058B00008D10402DDE90601400A40EAC15049125C
:1058C000CDE90601002C1FDDB4F5006F1CDC601E65
:1058D0002040C8B9204601F0FFFA0390C348046095
:1058E0001020C2494860402088600020C8604FF402
:1058F000806008610846FEF7BFFD1020FBF740F905
:1059000006461EB13046B6E72620B4E7012F6FD910
:1059100007FB04F0B0F1007F01D32620ABE7B248CB
:10592000007838B1B0480078012803D0AE4800783C
:1059300002282DD1AE4800880004AC490860372009
:105940004860402088600020C8604FF48060086193
:105950000846FEF791FD3720FBF712F906460EB117
:10596000304688E7A14807601720A04948604020DA
:1059700088600020C8604FF4806008610846FEF728
:105980007BFD1720FBF7FCF806460EB1304672E7A8
:1059900096490698086019204860402088600020D9
:1059A000C8604FF4806008610846FEF765FD192065
:1059B000FBF7E6F806460EB130465CE703980001B7
:1059C0008849886007FB04F048604FF0FF300860AA
:1059D000012048610020C86008610846FEF7ECFC21
:1059E00084480078002871D1451EFCF737FA40E062
:1059F000DEE07B48406B00F48040A8B3ABEB0800CE
:105A000020281ED2ABEB080000F0030018B9ABEB66
:105A10000800800803E0ABEB08008008401C019000
:105A20004FF0000909E0DAF80000FEF749FD09F13E
:105A300001090AF1040A08F1040801988145F2D32A
:105A40000FE04FF0000905E05AF82900FEF738FD95
:105A500009F10109B9F1080FF6D30AF1200A08F19A
:105A600020086FF0404504E0FFE70DB9042002E78D
:105A70006D1E5B48406B40F21A3108400028B8D0D8
:105A80000820FEF7C3FC20B10820FEF779FC0420B3
:105A9000F1E60220FEF7BAFC20B10220FEF770FC0E
:105AA0000220E8E61020FEF7B1FC20B11020FEF73E
:105AB00067FC0520DFE64FF40070FEF7A7FC30B16D
:105AC0004FF40070FEF75CFC0720D4E62CE04FF4A6
:105AD0008070FEF79BFC00B34348007838B1424821
